{
  "contractName": "SaveData",
  "abi": [
    {
      "constant": true,
      "inputs": [
        {
          "internalType": "uint256",
          "name": "",
          "type": "uint256"
        }
      ],
      "name": "data",
      "outputs": [
        {
          "internalType": "string",
          "name": "hashOfOriginalDataString",
          "type": "string"
        },
        {
          "internalType": "string",
          "name": "secondTimeEncryptedString",
          "type": "string"
        },
        {
          "internalType": "address",
          "name": "sender",
          "type": "address"
        },
        {
          "internalType": "string",
          "name": "medReportId",
          "type": "string"
        }
      ],
      "payable": false,
      "stateMutability": "view",
      "type": "function"
    },
    {
      "constant": true,
      "inputs": [
        {
          "internalType": "address",
          "name": "",
          "type": "address"
        }
      ],
      "name": "senders",
      "outputs": [
        {
          "internalType": "uint256",
          "name": "totalMedicalReports",
          "type": "uint256"
        }
      ],
      "payable": false,
      "stateMutability": "view",
      "type": "function"
    },
    {
      "constant": true,
      "inputs": [],
      "name": "totalMedicalReports",
      "outputs": [
        {
          "internalType": "uint256",
          "name": "",
          "type": "uint256"
        }
      ],
      "payable": false,
      "stateMutability": "view",
      "type": "function"
    },
    {
      "constant": false,
      "inputs": [
        {
          "internalType": "string",
          "name": "secondTimeEncryptedString",
          "type": "string"
        },
        {
          "internalType": "string",
          "name": "hashOfOriginalDataString",
          "type": "string"
        },
        {
          "internalType": "string",
          "name": "medReportId",
          "type": "string"
        }
      ],
      "name": "saveData",
      "outputs": [],
      "payable": false,
      "stateMutability": "nonpayable",
      "type": "function"
    }
  ],
  "bytecode": "0x60806040526000805534801561001457600080fd5b5061090e806100246000396000f3fe608060405234801561001057600080fd5b506004361061004c5760003560e01c80632320b16b14610051578063982fb9d81461023a578063e7ee5d5214610292578063f0ba8440146102b0575b600080fd5b6102386004803603606081101561006757600080fd5b810190808035906020019064010000000081111561008457600080fd5b82018360208201111561009657600080fd5b803590602001918460018302840111640100000000831117156100b857600080fd5b91908080601f016020809104026020016040519081016040528093929190818152602001838380828437600081840152601f19601f8201169050808301925050505050505091929192908035906020019064010000000081111561011b57600080fd5b82018360208201111561012d57600080fd5b8035906020019184600183028401116401000000008311171561014f57600080fd5b91908080601f016020809104026020016040519081016040528093929190818152602001838380828437600081840152601f19601f820116905080830192505050505050509192919290803590602001906401000000008111156101b257600080fd5b8201836020820111156101c457600080fd5b803590602001918460018302840111640100000000831117156101e657600080fd5b91908080601f016020809104026020016040519081016040528093929190818152602001838380828437600081840152601f19601f820116905080830192505050505050509192919290505050610462565b005b61027c6004803603602081101561025057600080fd5b81019080803573ffffffffffffffffffffffffffffffffffffffff1690602001909291905050506105f8565b6040518082815260200191505060405180910390f35b61029a610616565b6040518082815260200191505060405180910390f35b6102dc600480360360208110156102c657600080fd5b810190808035906020019092919050505061061c565b6040518080602001806020018573ffffffffffffffffffffffffffffffffffffffff1673ffffffffffffffffffffffffffffffffffffffff16815260200180602001848103845288818151815260200191508051906020019080838360005b8381101561035657808201518184015260208101905061033b565b50505050905090810190601f1680156103835780820380516001836020036101000a031916815260200191505b50848103835287818151815260200191508051906020019080838360005b838110156103bc5780820151818401526020810190506103a1565b50505050905090810190601f1680156103e95780820380516001836020036101000a031916815260200191505b50848103825285818151815260200191508051906020019080838360005b83811015610422578082015181840152602081019050610407565b50505050905090810190601f16801561044f5780820380516001836020036101000a031916815260200191505b5097505050505050505060405180910390f35b826001600080548152602001908152602001600020600101908051906020019061048d929190610834565b5081600160008054815260200190815260200160002060000190805190602001906104b9929190610834565b5033600160008054815260200190815260200160002060020160006101000a81548173ffffffffffffffffffffffffffffffffffffffff021916908373ffffffffffffffffffffffffffffffffffffffff160217905550806001600080548152602001908152602001600020600301908051906020019061053b929190610834565b5060008081548092919060010191905055600260003373ffffffffffffffffffffffffffffffffffffffff1673ffffffffffffffffffffffffffffffffffffffff1681526020019081526020016000206001016000600260003373ffffffffffffffffffffffffffffffffffffffff1673ffffffffffffffffffffffffffffffffffffffff168152602001908152602001600020600001600081548092919060010191905055815260200190815260200160002081905550505050565b60026020528060005260406000206000915090508060000154905081565b60005481565b6001602052806000526040600020600091509050806000018054600181600116156101000203166002900480601f0160208091040260200160405190810160405280929190818152602001828054600181600116156101000203166002900480156106c85780601f1061069d576101008083540402835291602001916106c8565b820191906000526020600020905b8154815290600101906020018083116106ab57829003601f168201915b505050505090806001018054600181600116156101000203166002900480601f0160208091040260200160405190810160405280929190818152602001828054600181600116156101000203166002900480156107665780601f1061073b57610100808354040283529160200191610766565b820191906000526020600020905b81548152906001019060200180831161074957829003601f168201915b5050505050908060020160009054906101000a900473ffffffffffffffffffffffffffffffffffffffff1690806003018054600181600116156101000203166002900480601f01602080910402602001604051908101604052809291908181526020018280546001816001161561010002031660029004801561082a5780601f106107ff5761010080835404028352916020019161082a565b820191906000526020600020905b81548152906001019060200180831161080d57829003601f168201915b5050505050905084565b828054600181600116156101000203166002900490600052602060002090601f016020900481019282601f1061087557805160ff19168380011785556108a3565b828001600101855582156108a3579182015b828111156108a2578251825591602001919060010190610887565b5b5090506108b091906108b4565b5090565b6108d691905b808211156108d25760008160009055506001016108ba565b5090565b9056fea265627a7a72315820709c3eda2479a538677e5e09bd9c309fd0e1de3d9b5241147dd782dd21491a2a64736f6c63430005100032",
  "source": "// SPDX-License-Identifier: MIT\npragma solidity >=0.4.22 <0.9.0;\ncontract SaveData {\n  uint public totalMedicalReports = 0;\n  mapping(uint => Data) public data;\n  mapping(address => Sender) public senders;\n\n  struct Sender {\n    uint totalMedicalReports;\n    mapping(uint => uint) data;\n  }\n\n  struct Data {\n    string hashOfOriginalDataString;\n    string secondTimeEncryptedString;\n    address sender;\n    string medReportId;\n  }\n\n  function saveData(\n    string memory secondTimeEncryptedString,\n    string memory hashOfOriginalDataString,\n    string memory medReportId\n  ) public {\n    data[totalMedicalReports].secondTimeEncryptedString = secondTimeEncryptedString;\n    data[totalMedicalReports].hashOfOriginalDataString = hashOfOriginalDataString;\n    data[totalMedicalReports].sender = msg.sender;\n    data[totalMedicalReports].medReportId = medReportId;\n\n    senders[msg.sender].data[senders[msg.sender].totalMedicalReports++] = totalMedicalReports++;\n  }\n}\n",
  "sourcePath": "/home/xerxes/APE/mahan-block/blockchain-master/contracts/SaveData.sol",
  "compiler": {
    "name": "solc",
    "version": "0.5.16+commit.9c3226ce.Emscripten.clang"
  },
  "schemaVersion": "3.4.16",
  "updatedAt": "2024-06-16T06:52:44.695Z",
  "networkType": "ethereum",
  "devdoc": {
    "methods": {}
  },
  "userdoc": {
    "methods": {}
  }
}