{
  "contractName": "HealthRecords",
  "abi": [
    {
      "anonymous": false,
      "inputs": [
        {
          "indexed": true,
          "internalType": "uint256",
          "name": "patientId",
          "type": "uint256"
        },
        {
          "indexed": true,
          "internalType": "uint256",
          "name": "doctorId",
          "type": "uint256"
        },
        {
          "indexed": false,
          "internalType": "uint256",
          "name": "expiryTimestamp",
          "type": "uint256"
        },
        {
          "indexed": false,
          "internalType": "bytes32",
          "name": "encryptedToken",
          "type": "bytes32"
        }
      ],
      "name": "AccessGranted",
      "type": "event"
    },
    {
      "anonymous": false,
      "inputs": [
        {
          "indexed": true,
          "internalType": "uint256",
          "name": "patientId",
          "type": "uint256"
        },
        {
          "indexed": false,
          "internalType": "string",
          "name": "name",
          "type": "string"
        },
        {
          "indexed": false,
          "internalType": "uint256",
          "name": "age",
          "type": "uint256"
        },
        {
          "indexed": false,
          "internalType": "string",
          "name": "sex",
          "type": "string"
        },
        {
          "indexed": false,
          "internalType": "string",
          "name": "patientAddress",
          "type": "string"
        },
        {
          "indexed": false,
          "internalType": "string",
          "name": "phoneNo",
          "type": "string"
        }
      ],
      "name": "PatientDataAppended",
      "type": "event"
    },
    {
      "inputs": [
        {
          "internalType": "address",
          "name": "",
          "type": "address"
        },
        {
          "internalType": "uint256",
          "name": "",
          "type": "uint256"
        }
      ],
      "name": "accessTokens",
      "outputs": [
        {
          "internalType": "bytes32",
          "name": "",
          "type": "bytes32"
        }
      ],
      "stateMutability": "view",
      "type": "function",
      "constant": true
    },
    {
      "inputs": [
        {
          "internalType": "uint256",
          "name": "",
          "type": "uint256"
        }
      ],
      "name": "patients",
      "outputs": [
        {
          "internalType": "uint256",
          "name": "id",
          "type": "uint256"
        },
        {
          "internalType": "string",
          "name": "name",
          "type": "string"
        },
        {
          "internalType": "uint256",
          "name": "age",
          "type": "uint256"
        },
        {
          "internalType": "string",
          "name": "sex",
          "type": "string"
        },
        {
          "internalType": "string",
          "name": "patientAddress",
          "type": "string"
        },
        {
          "internalType": "string",
          "name": "phoneNo",
          "type": "string"
        }
      ],
      "stateMutability": "view",
      "type": "function",
      "constant": true
    },
    {
      "inputs": [
        {
          "internalType": "uint256",
          "name": "doctorId",
          "type": "uint256"
        },
        {
          "internalType": "uint256",
          "name": "expiryTimestamp",
          "type": "uint256"
        },
        {
          "internalType": "bytes32",
          "name": "encryptedToken",
          "type": "bytes32"
        }
      ],
      "name": "grantAccess",
      "outputs": [],
      "stateMutability": "nonpayable",
      "type": "function"
    },
    {
      "inputs": [
        {
          "internalType": "uint256",
          "name": "patientId",
          "type": "uint256"
        },
        {
          "internalType": "string",
          "name": "name",
          "type": "string"
        },
        {
          "internalType": "uint256",
          "name": "age",
          "type": "uint256"
        },
        {
          "internalType": "string",
          "name": "sex",
          "type": "string"
        },
        {
          "internalType": "string",
          "name": "patientAddress",
          "type": "string"
        },
        {
          "internalType": "string",
          "name": "phoneNo",
          "type": "string"
        }
      ],
      "name": "createPatient",
      "outputs": [],
      "stateMutability": "nonpayable",
      "type": "function"
    },
    {
      "inputs": [
        {
          "internalType": "uint256",
          "name": "patientId",
          "type": "uint256"
        }
      ],
      "name": "getPatient",
      "outputs": [
        {
          "components": [
            {
              "internalType": "uint256",
              "name": "id",
              "type": "uint256"
            },
            {
              "internalType": "string",
              "name": "name",
              "type": "string"
            },
            {
              "internalType": "uint256",
              "name": "age",
              "type": "uint256"
            },
            {
              "internalType": "string",
              "name": "sex",
              "type": "string"
            },
            {
              "internalType": "string",
              "name": "patientAddress",
              "type": "string"
            },
            {
              "internalType": "string",
              "name": "phoneNo",
              "type": "string"
            }
          ],
          "internalType": "struct HealthRecords.Patient",
          "name": "",
          "type": "tuple"
        }
      ],
      "stateMutability": "view",
      "type": "function",
      "constant": true
    }
  ],
  "bytecode": "0x608060405234801561001057600080fd5b50611470806100206000396000f3fe608060405234801561001057600080fd5b50600436106100575760003560e01c80637d3a67961461005c57806393119a831461008c578063bd624b74146100c1578063c017dcb9146100dd578063c1b97f40146100f9575b600080fd5b61007660048036038101906100719190610bae565b610129565b6040516100839190611176565b60405180910390f35b6100a660048036038101906100a19190610bae565b610415565b6040516100b8969594939291906111c1565b60405180910390f35b6100db60048036038101906100d69190610cc0565b610671565b005b6100f760048036038101906100f29190610bd7565b610762565b005b610113600480360381019061010e9190610b72565b6109cd565b604051610120919061100c565b60405180910390f35b6101316109f2565b6000806000848152602001908152602001600020600101805461015390611354565b905011610195576040517f08c379a000000000000000000000000000000000000000000000000000000000815260040161018c90611136565b60405180910390fd5b6000808381526020019081526020016000206040518060c0016040529081600082015481526020016001820180546101cc90611354565b80601f01602080910402602001604051908101604052809291908181526020018280546101f890611354565b80156102455780601f1061021a57610100808354040283529160200191610245565b820191906000526020600020905b81548152906001019060200180831161022857829003601f168201915b505050505081526020016002820154815260200160038201805461026890611354565b80601f016020809104026020016040519081016040528092919081815260200182805461029490611354565b80156102e15780601f106102b6576101008083540402835291602001916102e1565b820191906000526020600020905b8154815290600101906020018083116102c457829003601f168201915b505050505081526020016004820180546102fa90611354565b80601f016020809104026020016040519081016040528092919081815260200182805461032690611354565b80156103735780601f1061034857610100808354040283529160200191610373565b820191906000526020600020905b81548152906001019060200180831161035657829003601f168201915b5050505050815260200160058201805461038c90611354565b80601f01602080910402602001604051908101604052809291908181526020018280546103b890611354565b80156104055780601f106103da57610100808354040283529160200191610405565b820191906000526020600020905b8154815290600101906020018083116103e857829003601f168201915b5050505050815250509050919050565b600060205280600052604060002060009150905080600001549080600101805461043e90611354565b80601f016020809104026020016040519081016040528092919081815260200182805461046a90611354565b80156104b75780601f1061048c576101008083540402835291602001916104b7565b820191906000526020600020905b81548152906001019060200180831161049a57829003601f168201915b5050505050908060020154908060030180546104d290611354565b80601f01602080910402602001604051908101604052809291908181526020018280546104fe90611354565b801561054b5780601f106105205761010080835404028352916020019161054b565b820191906000526020600020905b81548152906001019060200180831161052e57829003601f168201915b50505050509080600401805461056090611354565b80601f016020809104026020016040519081016040528092919081815260200182805461058c90611354565b80156105d95780601f106105ae576101008083540402835291602001916105d9565b820191906000526020600020905b8154815290600101906020018083116105bc57829003601f168201915b5050505050908060050180546105ee90611354565b80601f016020809104026020016040519081016040528092919081815260200182805461061a90611354565b80156106675780601f1061063c57610100808354040283529160200191610667565b820191906000526020600020905b81548152906001019060200180831161064a57829003601f168201915b5050505050905086565b6000801b8114156106b7576040517f08c379a00000000000000000000000000000000000000000000000000000000081526004016106ae906110f6565b60405180910390fd5b80600160003373ffffffffffffffffffffffffffffffffffffffff1673ffffffffffffffffffffffffffffffffffffffff168152602001908152602001600020600085815260200190815260200160002081905550823373ffffffffffffffffffffffffffffffffffffffff167fb8daef14e9a6e2a50e7bd32ad1544e39c31eb1eb0a2b5146a71c8c9cd4a9338c8484604051610755929190611198565b60405180910390a3505050565b60008551116107a6576040517f08c379a000000000000000000000000000000000000000000000000000000000815260040161079d90611096565b60405180910390fd5b600084116107e9576040517f08c379a00000000000000000000000000000000000000000000000000000000081526004016107e090611116565b60405180910390fd5b600083511161082d576040517f08c379a0000000000000000000000000000000000000000000000000000000008152600401610824906110d6565b60405180910390fd5b6000825111610871576040517f08c379a0000000000000000000000000000000000000000000000000000000008152600401610868906110b6565b60405180910390fd5b60008151116108b5576040517f08c379a00000000000000000000000000000000000000000000000000000000081526004016108ac90611156565b60405180910390fd5b60006040518060c001604052808881526020018781526020018681526020018581526020018481526020018381525090508060008089815260200190815260200160002060008201518160000155602082015181600101908051906020019061091f929190610a28565b50604082015181600201556060820151816003019080519060200190610946929190610a28565b506080820151816004019080519060200190610963929190610a28565b5060a0820151816005019080519060200190610980929190610a28565b50905050867fb9d59e88f117e3b858790a538b6bfa0ebf53bd6e792bd40cb0ef6842676a183087878787876040516109bc959493929190611027565b60405180910390a250505050505050565b6001602052816000526040600020602052806000526040600020600091509150505481565b6040518060c001604052806000815260200160608152602001600081526020016060815260200160608152602001606081525090565b828054610a3490611354565b90600052602060002090601f016020900481019282610a565760008555610a9d565b82601f10610a6f57805160ff1916838001178555610a9d565b82800160010185558215610a9d579182015b82811115610a9c578251825591602001919060010190610a81565b5b509050610aaa9190610aae565b5090565b5b80821115610ac7576000816000905550600101610aaf565b5090565b6000610ade610ad98461126f565b61123e565b905082815260208101848484011115610af657600080fd5b610b01848285611312565b509392505050565b600081359050610b18816113f5565b92915050565b600081359050610b2d8161140c565b92915050565b600082601f830112610b4457600080fd5b8135610b54848260208601610acb565b91505092915050565b600081359050610b6c81611423565b92915050565b60008060408385031215610b8557600080fd5b6000610b9385828601610b09565b9250506020610ba485828601610b5d565b9150509250929050565b600060208284031215610bc057600080fd5b6000610bce84828501610b5d565b91505092915050565b60008060008060008060c08789031215610bf057600080fd5b6000610bfe89828a01610b5d565b965050602087013567ffffffffffffffff811115610c1b57600080fd5b610c2789828a01610b33565b9550506040610c3889828a01610b5d565b945050606087013567ffffffffffffffff811115610c5557600080fd5b610c6189828a01610b33565b935050608087013567ffffffffffffffff811115610c7e57600080fd5b610c8a89828a01610b33565b92505060a087013567ffffffffffffffff811115610ca757600080fd5b610cb389828a01610b33565b9150509295509295509295565b600080600060608486031215610cd557600080fd5b6000610ce386828701610b5d565b9350506020610cf486828701610b5d565b9250506040610d0586828701610b1e565b9150509250925092565b610d18816112de565b82525050565b6000610d298261129f565b610d3381856112aa565b9350610d43818560208601611321565b610d4c816113e4565b840191505092915050565b6000610d628261129f565b610d6c81856112bb565b9350610d7c818560208601611321565b610d85816113e4565b840191505092915050565b6000610d9d6014836112bb565b91507f4e616d652063616e6e6f7420626520656d7074790000000000000000000000006000830152602082019050919050565b6000610ddd6017836112bb565b91507f416464726573732063616e6e6f7420626520656d7074790000000000000000006000830152602082019050919050565b6000610e1d6013836112bb565b91507f5365782063616e6e6f7420626520656d707479000000000000000000000000006000830152602082019050919050565b6000610e5d6017836112bb565b91507f496e76616c696420656e6372797074656420746f6b656e0000000000000000006000830152602082019050919050565b6000610e9d601d836112bb565b91507f416765206d7573742062652067726561746572207468616e207a65726f0000006000830152602082019050919050565b6000610edd6016836112bb565b91507f50617469656e7420646f6573206e6f74206578697374000000000000000000006000830152602082019050919050565b6000610f1d601c836112bb565b91507f50686f6e65206e756d6265722063616e6e6f7420626520656d707479000000006000830152602082019050919050565b600060c083016000830151610f686000860182610fee565b5060208301518482036020860152610f808282610d1e565b9150506040830151610f956040860182610fee565b5060608301518482036060860152610fad8282610d1e565b91505060808301518482036080860152610fc78282610d1e565b91505060a083015184820360a0860152610fe18282610d1e565b9150508091505092915050565b610ff781611308565b82525050565b61100681611308565b82525050565b60006020820190506110216000830184610d0f565b92915050565b600060a08201905081810360008301526110418188610d57565b90506110506020830187610ffd565b81810360408301526110628186610d57565b905081810360608301526110768185610d57565b9050818103608083015261108a8184610d57565b90509695505050505050565b600060208201905081810360008301526110af81610d90565b9050919050565b600060208201905081810360008301526110cf81610dd0565b9050919050565b600060208201905081810360008301526110ef81610e10565b9050919050565b6000602082019050818103600083015261110f81610e50565b9050919050565b6000602082019050818103600083015261112f81610e90565b9050919050565b6000602082019050818103600083015261114f81610ed0565b9050919050565b6000602082019050818103600083015261116f81610f10565b9050919050565b600060208201905081810360008301526111908184610f50565b905092915050565b60006040820190506111ad6000830185610ffd565b6111ba6020830184610d0f565b9392505050565b600060c0820190506111d66000830189610ffd565b81810360208301526111e88188610d57565b90506111f76040830187610ffd565b81810360608301526112098186610d57565b9050818103608083015261121d8185610d57565b905081810360a08301526112318184610d57565b9050979650505050505050565b6000604051905081810181811067ffffffffffffffff82111715611265576112646113b5565b5b8060405250919050565b600067ffffffffffffffff82111561128a576112896113b5565b5b601f19601f8301169050602081019050919050565b600081519050919050565b600082825260208201905092915050565b600082825260208201905092915050565b60006112d7826112e8565b9050919050565b6000819050919050565b600073ffffffffffffffffffffffffffffffffffffffff82169050919050565b6000819050919050565b82818337600083830152505050565b60005b8381101561133f578082015181840152602081019050611324565b8381111561134e576000848401525b50505050565b6000600282049050600182168061136c57607f821691505b602082108114156113805761137f611386565b5b50919050565b7f4e487b7100000000000000000000000000000000000000000000000000000000600052602260045260246000fd5b7f4e487b7100000000000000000000000000000000000000000000000000000000600052604160045260246000fd5b6000601f19601f8301169050919050565b6113fe816112cc565b811461140957600080fd5b50565b611415816112de565b811461142057600080fd5b50565b61142c81611308565b811461143757600080fd5b5056fea2646970667358221220d4f8d7dcecb9397cfeb89d210a76126102fc219aa30dbc4693ff33db2ff5a3a164736f6c63430008000033",
  "immutableReferences": {},
  "source": "// SPDX-License-Identifier: MIT\npragma solidity ^0.8.0;\n\ncontract HealthRecords {\n    struct Patient {\n        uint256 id;\n        string name;\n        uint256 age;\n        string sex;\n        string patientAddress;\n        string phoneNo;\n    }\n\n    mapping(uint256 => Patient) public patients;\n    mapping(address => mapping(uint256 => bytes32)) public accessTokens;\n\n    event AccessGranted(uint256 indexed patientId, uint256 indexed doctorId, uint256 expiryTimestamp, bytes32 encryptedToken);\n    event PatientDataAppended(uint256 indexed patientId, string name, uint256 age, string sex, string patientAddress, string phoneNo);\n\n    function grantAccess(uint256 doctorId, uint256 expiryTimestamp, bytes32 encryptedToken) public {\n        require(encryptedToken != bytes32(0), \"Invalid encrypted token\");\n        accessTokens[msg.sender][doctorId] = encryptedToken;\n        emit AccessGranted(uint256(uint160(msg.sender)), doctorId, expiryTimestamp, encryptedToken); // Cast address to uint256 for event\n    }\n\n    function createPatient(uint256 patientId, string memory name, uint256 age, string memory sex, string memory patientAddress, string memory phoneNo) public {\n        require(bytes(name).length > 0, \"Name cannot be empty\");\n        require(age > 0, \"Age must be greater than zero\");\n        require(bytes(sex).length > 0, \"Sex cannot be empty\");\n        require(bytes(patientAddress).length > 0, \"Address cannot be empty\");\n        require(bytes(phoneNo).length > 0, \"Phone number cannot be empty\");\n\n        Patient memory newPatient = Patient({\n            id: patientId,\n            name: name,\n            age: age,\n            sex: sex,\n            patientAddress: patientAddress,\n            phoneNo: phoneNo\n        });\n\n        patients[patientId] = newPatient;\n        emit PatientDataAppended(patientId, name, age, sex, patientAddress, phoneNo);\n    }\n\n    function getPatient(uint256 patientId) public view returns (Patient memory) {\n        require(bytes(patients[patientId].name).length > 0, \"Patient does not exist\");\n        return patients[patientId];\n    }\n}\n",
  "sourcePath": "/home/xerxes/APE/devhost2024-hackathon/doc-backend/Truffle/contracts/Health.sol",
  "compiler": {
    "name": "solc",
    "version": "0.8.0+commit.c7dfd78e.Emscripten.clang"
  },
  "schemaVersion": "3.4.16",
  "updatedAt": "2024-06-15T19:43:50.203Z",
  "networkType": "ethereum",
  "devdoc": {
    "kind": "dev",
    "methods": {},
    "version": 1
  },
  "userdoc": {
    "kind": "user",
    "methods": {},
    "version": 1
  }
}